:0609930054696D652000AF
:10080000750A30750B30750C30750D30D200E4F57B
:100810000E12093BE50E90099393600EAF0E050E84
:10082000EF93FFD20112095780EAE4F508F509AE0B
:1008300008AF09E4FCFD7BFF7AE079F57805C31287
:10084000097150030208FCD3E50D648094B9404956
:10085000750D30050CD3E50C648094B5403B750CE8
:1008600030050BD3E50B648094B94007750B300558
:100870000A8026E50AB431047F0180027F00D3E5B7
:100880000B648094B140047E0180027E00EE5F60C4
:1008900008750A30750B30B200D201AF0A12095741
:1008A000D201AF0B120957D2017F3A120957D20178
:1008B000AF0C120957D201AF0D12095730000DD2FB
:1008C000017F20120957D2017F41800BD2017F2086
:1008D000120957D2017F50120957D2017F4D1209D8
:1008E00057050D7F057E001208FEC2017F851209A3
:0E08F000570509E5097002050802082F80FE71
:10093B00C2017F38120957C2017F0E120957C2013B
:0C094B007F06120957C2017F0102095704
:100957008F0F12091E850FA0A20192B6C2B5D2B79A
:0A0967007F017E001208FEC2B722D5
:1008FE00E4FDFCC3ED9FEC9E5015E4FBFA0BBB0030
:0F090E00010ABA04F8BBFBF50DBD00010C80E433
:01091D0022B7
:10091E00D2A7D2B7C2B6D2B530A70DC2B77F017E6D
:0D092E00001208FED2B780F0C2B7C2B52299
:030000000209876B
:0C098700787FE4F6D8FD7581200208009E
:10097100EB9FF5F0EA9E42F0E99D42F0EC6480C8FD
:0609810064809845F0229D
:00000001FF
