:09096A00436F756E7465723A006A
:10080000750A30750B30750C30750D30E4F50E122D
:100810000912E50E90096A93600EAF0E050EEF9374
:10082000FFD20012092E80EAE4F508F509AE08AF00
:1008300009E4FCFD7BFF7AE079F57805C3120948ED
:1008400050030208D3D3E50D648094B94047750D79
:1008500030050CD3E50C648094B54039750C300537
:100860000BD3E50B648094B94007750B30050A8003
:1008700024E50AB431047F0180027F00D3E50B64D4
:100880008094B140047E0180027E00EE5F600675B8
:100890000A30750B30D200AF0A12092ED200AF0B0E
:1008A00012092ED2007F3A12092ED200AF0C120983
:1008B0002ED200AF0D12092E050D7F057E00120805
:1008C000D5C2007F8812092E0509E50970020508C6
:0508D00002082D80FE6E
:10091200C2007F3812092EC2007F0E12092EC200B9
:0C0922007F0612092EC2007F0102092E80
:10092E008F0F1208F5850FA0A20092B6C2B5D2B7EE
:0A093E007F017E001208D5C2B72227
:1008D500E4FDFCC3ED9FEC9E5015E4FBFA0BBB0059
:0F08E500010ABA04F8BBFBF50DBD00010C80E45D
:0108F40022E1
:1008F500D2A7D2B7C2B6D2B530A70DC2B77F017E97
:0D090500001208D5D2B780F0C2B7C2B522EB
:0300000002095E94
:0C095E00787FE4F6D8FD758120020800C7
:10094800EB9FF5F0EA9E42F0E99D42F0EC6480C826
:0609580064809845F022C6
:00000001FF
