:0C0ACC00C101C100020C0001020A000080
:03001B00020AAA2C
:100AAA00C0E0C28EE50B150B7002150A758D4B75E9
:050ABA008B92D0E03238
:03001300020ABF1F
:0D0ABF00C0D0A2809200A2819201D0D0325E
:03000300020A8F5F
:100A8F00C0E0E50D6401450C7008750CFF750DFF96
:0B0A9F008006750C00750D01D0E032E0
:100A6500D2AFD2AB758910758D4B758B92C28ED274
:100A7500AAD2A87580FF75B0FFE4F590120991120E
:0A0A85000A2412080012091D80F275
:1009E100A283B3B0825008750A00750B028022A25F
:1009F10082B0835008750A00750B0A8014A283B077
:100A0100825008750A00750B148006750A00750B73
:100A110028D3E50B9400E50A94004004D28E80F1BE
:030A2100C28E2260
:10099100759080E4F512F513A201B3B0005040C385
:1009A100E5139407E51294005010E590C313F590F8
:1009B1000513E513702405128020C3E513940EE599
:1009C1001294005010E59025E0F5900513E51370A1
:1009D1000905128005E4F512F5131209E180B92227
:100A2400E580C4540F750800F509A200B0015030E8
:100A3400850990E50D2509F509E50C3508F508E566
:100A440009641045087004F508F509E509B4FF0BBD
:100A5400E508B4FF0675080075090F1209E180CA9C
:010A6400226F
:10080000759081751200751380751400751501E4DB
:10081000F508F509A201B0005076C3E5099407E593
:100820000894005026E5134515F590E512C313F51D
:1008300012E51313F513E51525E0F515E51433F569
:10084000140509E509700205088040C3E509940E06
:10085000E50894005026E5134515F590E51325E0CD
:10086000F513E51233F512E514C313F514E515136A
:10087000F5150509E50970020508800FE4F508F58E
:1008800009F512751380F5147515011209E18084BC
:010890002245
:10091D00E4F590F512751380F514751501F508F5CC
:10092D0009A2008201505CC3E5099408E508940012
:10093D005019E5136290E512C313F512E51313F583
:10094D00130509E509703705088033C3E5099410CF
:10095D00E50894005019E5156290E51525E0F515AB
:10096D00E51433F5140509E50970130508800FE446
:10097D00F508F509F512751380F5147515011209B1
:04098D00E1809E2245
:0300000002089162
:0C089100787FE4F6D8FD7581200208D8BD
:10089D00020A65E493A3F8E493A34003F68001F202
:1008AD0008DFF48029E493A3F85407240CC8C3335C
:1008BD00C4540F4420C8834004F456800146F6DF2B
:1008CD00E4800B0102040810204080900ACCE47EE5
:1008DD00019360BCA3FF543F30E509541FFEE49320
:1008ED00A360010ECF54C025E060A840B8E493A3E7
:1008FD00FAE493A3F8E493A3C8C582C8CAC583CA12
:10090D00F0A3C8C582C8CAC583CADFE9DEE780BEC9
:010AD800001D
:00000001FF
