:1009520048656C6C6E6F20576F726C642100436F38
:07096200756E7465723A0026
:04096900020C00007C
:10088C00750830750930E4F50A12091CE50A90095F
:10089C006093600EAF0A050AEF93FFD2001209387D
:1008AC0080EAD3E509648094B94003750930D3E537
:1008BC0009648094B94003750930D200AF0912095C
:1008CC003805097FFA7E001208DFC2007F89120901
:0308DC003880CF92
:10091C00C2007F38120938C2007F0E120938C2009B
:0C092C007F06120938C2007F0102093862
:100938008F0B1208FF850BA0A20092B6C2B5D2B7E2
:0A0948007F017E001208DFC2B72213
:1008DF00E4FDFCC3ED9FEC9E5015E4FBFA0BBB004F
:0F08EF00010ABA04F8BBFBF50DBD00010C80E453
:0108FE0022D7
:1008FF00D2A7D2B7C2B6D2B530A70DC2B77F017E8D
:0D090F00001208DFD2B780F0C2B7C2B522D7
:03000000020800F3
:0C080000787FE4F6D8FD758120020847DF
:10080C0002088CE493A3F8E493A34003F68001F26E
:10081C0008DFF48029E493A3F85407240CC8C333ED
:10082C00C4540F4420C8834004F456800146F6DFBC
:10083C00E4800B0102040810204080900969E47EDA
:10084C00019360BCA3FF543F30E509541FFEE493B1
:10085C00A360010ECF54C025E060A840B8E493A378
:10086C00FAE493A3F8E493A3C8C582C8CAC583CAA3
:10087C00F0A3C8C582C8CAC583CADFE9DEE780BE5B
:01096D000089
:00000001FF
