:1009680048656C6C6F204A6F686E00436F756E74D3
:0409780065723A006A
:10080000750A30750B30750C30750D30750E3075FE
:100810000F30751030E4F511120907E511900973D6
:1008200093600EAF110511EF93FFD20012093C80C7
:10083000EAE4F508F509AE08AF09E4FCFD7BFF7AB0
:10084000E079F57805C312095250030208E1D3E5B7
:1008500010648094B94057751030050FD3E50F64CC
:100860008094B94049750F30050ED3E50E6480942D
:10087000B9403B750E30050DD3E50D648094B94049
:100880002D750D30050CD3E50C648094B9401F75AF
:100890000C30050BD3E50B648094B94011750B390E
:1008A000050AD3E50A648094B94003750A39D20079
:1008B000AF0D12093CD200AF0E12093CD200AF0FAF
:1008C00012093CD200AF1012093C05101208E3C215
:1008D000007F8812093C0509E50970020508020835
:0308E0003680FE61
:10090700C2007F3812093CC2007F0E12093CC200A8
:0C0917007F0612093CC2007F0102093C6F
:10093C008F121209238512A0A20092B6C2B5D2B7AB
:06094C001208E3C2B7220D
:0408E3007F017E0013
:1008E700E4FDFCC3ED9FEC9E5015E4FBFA0BBB0047
:0F08F700010ABA04F8BBFBF50DBD00010C80E44B
:0109060022CE
:10092300D2A7D2B7C2B6D2B530A709C2B71208E36D
:09093300D2B780F4C2B7C2B522AC
:0300000002097C76
:0C097C00787FE4F6D8FD758120020800A9
:10095200EB9FF5F0EA9E42F0E99D42F0EC6480C81C
:0609620064809845F022BC
:00000001FF
