:1008FD0048656C6C6F204A6F686E00436F756E743F
:04090D0065723A00D5
:10080000750A30750B30750C30E4F50D1208C7E52C
:100810000D90090893600EAF0D050DEF93FFD20008
:100820001208E380EAE4F508F509D3E50C64809446
:10083000B9401F750C30050BD3E50B648094B940AB
:1008400011750B30050AD3E50A648094B94003752D
:100850000A30D200AF0A1208E3D200AF0B1208E34D
:10086000D200AF0C1208E3050C7F0A7E0012088A42
:10087000C2007F881208E30509E50970020508D364
:0A08800094D0E508940740A280FE22
:1008C700C2007F381208E3C2007F0E1208E3C2009D
:0C08D7007F061208E3C2007F010208E364
:1008E3008F0E1208AA850EA0A20092B6C2B5D2B787
:0A08F3007F017E0012088AC2B722BE
:10088A00E4FDFCC3ED9FEC9E5015E4FBFA0BBB00A4
:0F089A00010ABA04F8BBFBF50DBD00010C80E4A8
:0108A900222C
:1008AA00D2A7D2B7C2B6D2B530A70DC2B77F017EE2
:0D08BA000012088AD2B780F0C2B7C2B52282
:03000000020911E1
:0C091100787FE4F6D8FD75812002080014
:00000001FF
